{
  "contractName": "Funding",
  "abi": [
    {
      "anonymous": false,
      "inputs": [
        {
          "indexed": false,
          "internalType": "uint256",
          "name": "id",
          "type": "uint256"
        },
        {
          "indexed": false,
          "internalType": "address",
          "name": "buyer",
          "type": "address"
        },
        {
          "components": [
            {
              "internalType": "uint256",
              "name": "requiredValue",
              "type": "uint256"
            },
            {
              "internalType": "bool",
              "name": "availableforfunding",
              "type": "bool"
            }
          ],
          "indexed": false,
          "internalType": "struct Funding.minFunding",
          "name": "requiredValue",
          "type": "tuple"
        }
      ],
      "name": "ProjectFunded",
      "type": "event"
    },
    {
      "anonymous": false,
      "inputs": [
        {
          "indexed": false,
          "internalType": "uint256",
          "name": "id",
          "type": "uint256"
        },
        {
          "indexed": false,
          "internalType": "address",
          "name": "owner",
          "type": "address"
        },
        {
          "indexed": false,
          "internalType": "string",
          "name": "title",
          "type": "string"
        },
        {
          "indexed": false,
          "internalType": "string",
          "name": "description",
          "type": "string"
        },
        {
          "indexed": false,
          "internalType": "uint256",
          "name": "projectId",
          "type": "uint256"
        },
        {
          "components": [
            {
              "internalType": "uint256",
              "name": "requiredValue",
              "type": "uint256"
            },
            {
              "internalType": "bool",
              "name": "availableforfunding",
              "type": "bool"
            }
          ],
          "indexed": false,
          "internalType": "struct Funding.minFunding",
          "name": "price",
          "type": "tuple"
        }
      ],
      "name": "ProjectUploaded",
      "type": "event"
    },
    {
      "anonymous": false,
      "inputs": [
        {
          "indexed": false,
          "internalType": "uint256",
          "name": "projectId",
          "type": "uint256"
        },
        {
          "indexed": false,
          "internalType": "address",
          "name": "owner",
          "type": "address"
        },
        {
          "indexed": false,
          "internalType": "bool",
          "name": "availableforfunding",
          "type": "bool"
        }
      ],
      "name": "projectStatusChanged",
      "type": "event"
    },
    {
      "anonymous": false,
      "inputs": [
        {
          "indexed": false,
          "internalType": "uint256",
          "name": "projectId",
          "type": "uint256"
        },
        {
          "indexed": false,
          "internalType": "address",
          "name": "owner",
          "type": "address"
        },
        {
          "indexed": false,
          "internalType": "uint256",
          "name": "newAvailableForFunding",
          "type": "uint256"
        }
      ],
      "name": "projectStatusChanged",
      "type": "event"
    },
    {
      "inputs": [],
      "name": "name",
      "outputs": [
        {
          "internalType": "string",
          "name": "",
          "type": "string"
        }
      ],
      "stateMutability": "view",
      "type": "function",
      "constant": true
    },
    {
      "inputs": [],
      "name": "projectCount",
      "outputs": [
        {
          "internalType": "uint256",
          "name": "",
          "type": "uint256"
        }
      ],
      "stateMutability": "view",
      "type": "function",
      "constant": true
    },
    {
      "inputs": [
        {
          "internalType": "uint256",
          "name": "",
          "type": "uint256"
        }
      ],
      "name": "projects",
      "outputs": [
        {
          "internalType": "uint256",
          "name": "id",
          "type": "uint256"
        },
        {
          "internalType": "address",
          "name": "owner",
          "type": "address"
        },
        {
          "internalType": "string",
          "name": "title",
          "type": "string"
        },
        {
          "internalType": "string",
          "name": "description",
          "type": "string"
        },
        {
          "components": [
            {
              "internalType": "uint256",
              "name": "requiredValue",
              "type": "uint256"
            },
            {
              "internalType": "bool",
              "name": "availableforfunding",
              "type": "bool"
            }
          ],
          "internalType": "struct Funding.minFunding",
          "name": "price",
          "type": "tuple"
        }
      ],
      "stateMutability": "view",
      "type": "function",
      "constant": true
    },
    {
      "inputs": [
        {
          "internalType": "uint256",
          "name": "",
          "type": "uint256"
        }
      ],
      "name": "sponsors",
      "outputs": [
        {
          "internalType": "uint256",
          "name": "id",
          "type": "uint256"
        },
        {
          "internalType": "address",
          "name": "buyer",
          "type": "address"
        },
        {
          "internalType": "string",
          "name": "projectId",
          "type": "string"
        },
        {
          "internalType": "string",
          "name": "projectTitle",
          "type": "string"
        },
        {
          "internalType": "string",
          "name": "description",
          "type": "string"
        },
        {
          "internalType": "uint256",
          "name": "dateBought",
          "type": "uint256"
        }
      ],
      "stateMutability": "view",
      "type": "function",
      "constant": true
    },
    {
      "inputs": [],
      "name": "sponsorshipCount",
      "outputs": [
        {
          "internalType": "uint256",
          "name": "",
          "type": "uint256"
        }
      ],
      "stateMutability": "view",
      "type": "function",
      "constant": true
    },
    {
      "inputs": [],
      "name": "symbol",
      "outputs": [
        {
          "internalType": "string",
          "name": "",
          "type": "string"
        }
      ],
      "stateMutability": "view",
      "type": "function",
      "constant": true
    },
    {
      "inputs": [],
      "name": "initialize",
      "outputs": [],
      "stateMutability": "nonpayable",
      "type": "function"
    },
    {
      "inputs": [
        {
          "internalType": "string",
          "name": "title",
          "type": "string"
        },
        {
          "internalType": "string",
          "name": "description",
          "type": "string"
        },
        {
          "components": [
            {
              "internalType": "uint256",
              "name": "requiredValue",
              "type": "uint256"
            },
            {
              "internalType": "bool",
              "name": "availableforfunding",
              "type": "bool"
            }
          ],
          "internalType": "struct Funding.minFunding",
          "name": "price",
          "type": "tuple"
        }
      ],
      "name": "uploadProject",
      "outputs": [],
      "stateMutability": "nonpayable",
      "type": "function"
    },
    {
      "inputs": [
        {
          "internalType": "uint256",
          "name": "projectId",
          "type": "uint256"
        },
        {
          "internalType": "bool",
          "name": "newAvailableForFunding",
          "type": "bool"
        }
      ],
      "name": "changeProjectStatus",
      "outputs": [],
      "stateMutability": "nonpayable",
      "type": "function"
    },
    {
      "inputs": [
        {
          "internalType": "uint256",
          "name": "projectId",
          "type": "uint256"
        }
      ],
      "name": "fundProject",
      "outputs": [],
      "stateMutability": "payable",
      "type": "function",
      "payable": true
    }
  ],
  "bytecode": "0x608060405234801561001057600080fd5b506117f7806100206000396000f3fe6080604052600436106100915760003560e01c80637f745585116100595780637f745585146101745780638129fc1c1461019d57806393066b4c146101b457806395d89b41146101f6578063ddeb5d3f1461022157610091565b806306fdde0314610096578063107046bd146100c157806336fbad261461010257806359d8c8401461012d5780636c563abe14610158575b600080fd5b3480156100a257600080fd5b506100ab61024a565b6040516100b89190610ed1565b60405180910390f35b3480156100cd57600080fd5b506100e860048036038101906100e39190610f3d565b6102d8565b6040516100f9959493929190611013565b60405180910390f35b34801561010e57600080fd5b5061011761046d565b6040516101249190611074565b60405180910390f35b34801561013957600080fd5b50610142610473565b60405161014f9190611074565b60405180910390f35b610172600480360381019061016d9190610f3d565b610479565b005b34801561018057600080fd5b5061019b600480360381019061019691906110bb565b61076a565b005b3480156101a957600080fd5b506101b26107d8565b005b3480156101c057600080fd5b506101db60048036038101906101d69190610f3d565b610964565b6040516101ed969594939291906110fb565b60405180910390f35b34801561020257600080fd5b5061020b610b58565b6040516102189190610ed1565b60405180910390f35b34801561022d57600080fd5b50610248600480360381019061024391906112fb565b610be6565b005b60038054610257906113b5565b80601f0160208091040260200160405190810160405280929190818152602001828054610283906113b5565b80156102d05780601f106102a5576101008083540402835291602001916102d0565b820191906000526020600020905b8154815290600101906020018083116102b357829003601f168201915b505050505081565b60056020528060005260406000206000915090508060000154908060010160009054906101000a900473ffffffffffffffffffffffffffffffffffffffff1690806002018054610327906113b5565b80601f0160208091040260200160405190810160405280929190818152602001828054610353906113b5565b80156103a05780601f10610375576101008083540402835291602001916103a0565b820191906000526020600020905b81548152906001019060200180831161038357829003601f168201915b5050505050908060030180546103b5906113b5565b80601f01602080910402602001604051908101604052809291908181526020018280546103e1906113b5565b801561042e5780601f106104035761010080835404028352916020019161042e565b820191906000526020600020905b81548152906001019060200180831161041157829003601f168201915b50505050509080600401604051806040016040529081600082015481526020016001820160009054906101000a900460ff161515151581525050905085565b60015481565b60025481565b600073ffffffffffffffffffffffffffffffffffffffff163373ffffffffffffffffffffffffffffffffffffffff16036104b257600080fd5b600560008281526020019081526020016000206004016000015434101561050e576040517f08c379a000000000000000000000000000000000000000000000000000000000815260040161050590611458565b60405180910390fd5b600115156005600083815260200190815260200160002060040160010160009054906101000a900460ff1615151461057b576040517f08c379a000000000000000000000000000000000000000000000000000000000815260040161057290611510565b60405180910390fd5b60006005600083815260200190815260200160002060010160009054906101000a900473ffffffffffffffffffffffffffffffffffffffff1673ffffffffffffffffffffffffffffffffffffffff16346040516105d790611561565b60006040518083038185875af1925050503d8060008114610614576040519150601f19603f3d011682016040523d82523d6000602084013e610619565b606091505b505090508061065d576040517f08c379a0000000000000000000000000000000000000000000000000000000008152600401610654906115c2565b60405180910390fd5b336005600084815260200190815260200160002060010160006101000a81548173ffffffffffffffffffffffffffffffffffffffff021916908373ffffffffffffffffffffffffffffffffffffffff16021790555060006005600084815260200190815260200160002060040160010160006101000a81548160ff02191690831515021790555060006005600084815260200190815260200160002060040160010160006101000a81548160ff0219169083151502179055507f44adfe6115ecd4c6de92d99eb2e68ea8464206954703e603797070bf7498d86682336005600086815260200190815260200160002060040160405161075e93929190611681565b60405180910390a15050565b600073ffffffffffffffffffffffffffffffffffffffff163373ffffffffffffffffffffffffffffffffffffffff16036107a357600080fd5b806005600084815260200190815260200160002060040160010160006101000a81548160ff0219169083151502179055505050565b600060019054906101000a900460ff166108005760008054906101000a900460ff1615610809565b610808610d61565b5b610848576040517f08c379a000000000000000000000000000000000000000000000000000000000815260040161083f9061172a565b60405180910390fd5b60008060019054906101000a900460ff161590508015610898576001600060016101000a81548160ff02191690831515021790555060016000806101000a81548160ff0219169083151502179055505b600060018190555060006002819055506040518060400160405280600781526020017f50726f6a65637400000000000000000000000000000000000000000000000000815250600390805190602001906108f3929190610d95565b506040518060400160405280600781526020017f50524f4a454354000000000000000000000000000000000000000000000000008152506004908051906020019061093f929190610d95565b5080156109615760008060016101000a81548160ff0219169083151502179055505b50565b60066020528060005260406000206000915090508060000154908060010160009054906101000a900473ffffffffffffffffffffffffffffffffffffffff16908060020180546109b3906113b5565b80601f01602080910402602001604051908101604052809291908181526020018280546109df906113b5565b8015610a2c5780601f10610a0157610100808354040283529160200191610a2c565b820191906000526020600020905b815481529060010190602001808311610a0f57829003601f168201915b505050505090806003018054610a41906113b5565b80601f0160208091040260200160405190810160405280929190818152602001828054610a6d906113b5565b8015610aba5780601f10610a8f57610100808354040283529160200191610aba565b820191906000526020600020905b815481529060010190602001808311610a9d57829003601f168201915b505050505090806004018054610acf906113b5565b80601f0160208091040260200160405190810160405280929190818152602001828054610afb906113b5565b8015610b485780601f10610b1d57610100808354040283529160200191610b48565b820191906000526020600020905b815481529060010190602001808311610b2b57829003601f168201915b5050505050908060050154905086565b60048054610b65906113b5565b80601f0160208091040260200160405190810160405280929190818152602001828054610b91906113b5565b8015610bde5780601f10610bb357610100808354040283529160200191610bde565b820191906000526020600020905b815481529060010190602001808311610bc157829003601f168201915b505050505081565b6000835111610bf457600080fd5b600073ffffffffffffffffffffffffffffffffffffffff163373ffffffffffffffffffffffffffffffffffffffff1603610c2d57600080fd5b60016000815480929190610c4090611779565b91905055506040518060a0016040528060015481526020013373ffffffffffffffffffffffffffffffffffffffff168152602001848152602001838152602001828152506005600060015481526020019081526020016000206000820151816000015560208201518160010160006101000a81548173ffffffffffffffffffffffffffffffffffffffff021916908373ffffffffffffffffffffffffffffffffffffffff1602179055506040820151816002019080519060200190610d06929190610d95565b506060820151816003019080519060200190610d23929190610d95565b506080820151816004016000820151816000015560208201518160010160006101000a81548160ff0219169083151502179055505050905050505050565b6000610d6c30610d72565b15905090565b6000808273ffffffffffffffffffffffffffffffffffffffff163b119050919050565b828054610da1906113b5565b90600052602060002090601f016020900481019282610dc35760008555610e0a565b82601f10610ddc57805160ff1916838001178555610e0a565b82800160010185558215610e0a579182015b82811115610e09578251825591602001919060010190610dee565b5b509050610e179190610e1b565b5090565b5b80821115610e34576000816000905550600101610e1c565b5090565b600081519050919050565b600082825260208201905092915050565b60005b83811015610e72578082015181840152602081019050610e57565b83811115610e81576000848401525b50505050565b6000601f19601f8301169050919050565b6000610ea382610e38565b610ead8185610e43565b9350610ebd818560208601610e54565b610ec681610e87565b840191505092915050565b60006020820190508181036000830152610eeb8184610e98565b905092915050565b6000604051905090565b600080fd5b600080fd5b6000819050919050565b610f1a81610f07565b8114610f2557600080fd5b50565b600081359050610f3781610f11565b92915050565b600060208284031215610f5357610f52610efd565b5b6000610f6184828501610f28565b91505092915050565b610f7381610f07565b82525050565b600073ffffffffffffffffffffffffffffffffffffffff82169050919050565b6000610fa482610f79565b9050919050565b610fb481610f99565b82525050565b610fc381610f07565b82525050565b60008115159050919050565b610fde81610fc9565b82525050565b604082016000820151610ffa6000850182610fba565b50602082015161100d6020850182610fd5565b50505050565b600060c0820190506110286000830188610f6a565b6110356020830187610fab565b81810360408301526110478186610e98565b9050818103606083015261105b8185610e98565b905061106a6080830184610fe4565b9695505050505050565b60006020820190506110896000830184610f6a565b92915050565b61109881610fc9565b81146110a357600080fd5b50565b6000813590506110b58161108f565b92915050565b600080604083850312156110d2576110d1610efd565b5b60006110e085828601610f28565b92505060206110f1858286016110a6565b9150509250929050565b600060c0820190506111106000830189610f6a565b61111d6020830188610fab565b818103604083015261112f8187610e98565b905081810360608301526111438186610e98565b905081810360808301526111578185610e98565b905061116660a0830184610f6a565b979650505050505050565b600080fd5b600080fd5b7f4e487b7100000000000000000000000000000000000000000000000000000000600052604160045260246000fd5b6111b382610e87565b810181811067ffffffffffffffff821117156111d2576111d161117b565b5b80604052505050565b60006111e5610ef3565b90506111f182826111aa565b919050565b600067ffffffffffffffff8211156112115761121061117b565b5b61121a82610e87565b9050602081019050919050565b82818337600083830152505050565b6000611249611244846111f6565b6111db565b90508281526020810184848401111561126557611264611176565b5b611270848285611227565b509392505050565b600082601f83011261128d5761128c611171565b5b813561129d848260208601611236565b91505092915050565b600080fd5b6000604082840312156112c1576112c06112a6565b5b6112cb60406111db565b905060006112db84828501610f28565b60008301525060206112ef848285016110a6565b60208301525092915050565b60008060006080848603121561131457611313610efd565b5b600084013567ffffffffffffffff81111561133257611331610f02565b5b61133e86828701611278565b935050602084013567ffffffffffffffff81111561135f5761135e610f02565b5b61136b86828701611278565b925050604061137c868287016112ab565b9150509250925092565b7f4e487b7100000000000000000000000000000000000000000000000000000000600052602260045260246000fd5b600060028204905060018216806113cd57607f821691505b6020821081036113e0576113df611386565b5b50919050565b7f596f7520646f6e2774206861766520656e6f7567682066756e647320696e207960008201527f6f75722063727970746f2077616c6c6574000000000000000000000000000000602082015250565b6000611442603183610e43565b915061144d826113e6565b604082019050919050565b6000602082019050818103600083015261147181611435565b9050919050565b7f546865207472616e73616374696f6e2063616e27742062652070726f6365737360008201527f65642064756520746f2074686520756e6176696c6162696c697479206f66207460208201527f68652070726f6a65637400000000000000000000000000000000000000000000604082015250565b60006114fa604a83610e43565b915061150582611478565b606082019050919050565b60006020820190508181036000830152611529816114ed565b9050919050565b600081905092915050565b50565b600061154b600083611530565b91506115568261153b565b600082019050919050565b600061156c8261153e565b9150819050919050565b7f5472616e73666572206661696c65640000000000000000000000000000000000600082015250565b60006115ac600f83610e43565b91506115b782611576565b602082019050919050565b600060208201905081810360008301526115db8161159f565b9050919050565b60008160001c9050919050565b6000819050919050565b600061160c611607836115e2565b6115ef565b9050919050565b600060ff82169050919050565b600061163361162e836115e2565b611613565b9050919050565b60408201600080830154905061164f816115f9565b61165c6000860182610fba565b506001830154905061166d81611620565b61167a6020860182610fd5565b5050505050565b60006080820190506116966000830186610f6a565b6116a36020830185610fab565b6116b0604083018461163a565b949350505050565b7f496e697469616c697a61626c653a20636f6e747261637420697320616c72656160008201527f647920696e697469616c697a6564000000000000000000000000000000000000602082015250565b6000611714602e83610e43565b915061171f826116b8565b604082019050919050565b6000602082019050818103600083015261174381611707565b9050919050565b7f4e487b7100000000000000000000000000000000000000000000000000000000600052601160045260246000fd5b600061178482610f07565b91507fffffffffffffffffffffffffffffffffffffffffffffffffffffffffffffffff82036117b6576117b561174a565b5b60018201905091905056fea26469706673582212200049b45675d6a9e862a067efb4f92443b686c0ad05437e3936681c5754cea12064736f6c634300080e0033",
  "immutableReferences": {},
  "source": "pragma solidity >=0.5.0;\r\n\r\nimport \"./Initializable.sol\";\r\n\r\n contract Funding is Initializable {\r\n     uint256 public projectCount;\r\n     uint256 public sponsorshipCount;\r\n     string public name;\r\n     string public symbol;\r\n     mapping(uint256 => MetadataProject) public projects;\r\n     mapping(uint256 => MetadataSponsor) public sponsors;\r\n\r\n\r\n     struct MetadataSponsor {\r\n         uint256 id;\r\n         address buyer;\r\n         string projectId;\r\n         string projectTitle;\r\n         string description;\r\n         uint256 dateBought;\r\n\r\n     }\r\n     struct minFunding{\r\n         uint256 requiredValue;\r\n         bool availableforfunding;\r\n\r\n     }\r\n     struct MetadataProject {\r\n         uint256 id;\r\n         address owner;\r\n         string title;\r\n         string description;\r\n         minFunding price;\r\n\r\n     }\r\n\r\n    event ProjectUploaded(\r\n        uint256 id,\r\n        address owner,\r\n        string title,\r\n        string description,\r\n        uint256 projectId,\r\n        minFunding price\r\n\r\n    );\r\n\r\n    event projectStatusChanged(\r\n        uint256 projectId,\r\n        address owner,\r\n        bool availableforfunding\r\n    );\r\n    event ProjectFunded (\r\n\r\n        uint256 id,\r\n        address buyer,\r\n        minFunding requiredValue\r\n    );\r\n        event projectStatusChanged(\r\n            uint256 projectId,\r\n            address owner,\r\n            uint256 newAvailableForFunding\r\n        );\r\n\r\n    \r\n    function initialize() public initializer {\r\n        projectCount = 0;\r\n        sponsorshipCount = 0;\r\n        name = \"Project\";\r\n        symbol = \"PROJECT\";\r\n    }\r\n\r\n    function uploadProject(\r\n        string memory title,\r\n        string memory description,\r\n       \r\n        minFunding memory price\r\n\r\n    ) public {\r\n        \r\n        require(bytes(title).length > 0 );\r\n        require(msg.sender != address(0));\r\n        \r\n        //intreaba badica\r\n        projectCount++;\r\n        projects[projectCount] = MetadataProject(\r\n            projectCount,\r\n            msg.sender,\r\n            \r\n            title,\r\n            description,\r\n           \r\n            price\r\n            \r\n\r\n        );\r\n    }\r\n\r\n    function changeProjectStatus(uint256 projectId, bool newAvailableForFunding)\r\n        public {\r\n            require(msg.sender != address(0));\r\n            projects[projectId].price.availableforfunding = newAvailableForFunding;\r\n\r\n    }\r\n        function fundProject(uint256 projectId) external payable {\r\n            require(msg.sender != address(0));\r\n            require(msg.value >= projects[projectId].price.requiredValue,\r\n            \"You don't have enough funds in your crypto wallet\"\r\n            );\r\n\r\n            require(\r\n                projects[projectId].price.availableforfunding == true,\r\n                \"The transaction can't be processed due to the unavilability of the project\"\r\n\r\n            \r\n            );\r\n            (bool success,) = projects[projectId].owner.call{value: msg.value}(\"\");\r\n            require (success, \"Transfer failed\");\r\n                projects[projectId].owner = msg.sender;\r\n                projects[projectId].price.availableforfunding = false;\r\n                projects[projectId].price.availableforfunding = false;\r\n            \r\n            emit ProjectFunded(projectId, msg.sender, projects[projectId].price);\r\n        }\r\n\r\n }",
  "sourcePath": "C:\\Users\\flavi\\blockchain\\contracts\\Funding.sol",
  "compiler": {
    "name": "solc",
    "version": "0.8.14+commit.80d49f37.Emscripten.clang"
  },
  "schemaVersion": "3.4.7",
  "updatedAt": "2022-05-27T00:23:13.193Z",
  "networkType": "ethereum",
  "devdoc": {
    "kind": "dev",
    "methods": {},
    "version": 1
  },
  "userdoc": {
    "kind": "user",
    "methods": {},
    "version": 1
  }
}